:100000000C942A000C9447000C9447000C94470071
:100010000C9447000C9447000C9447000C94470044
:100020000C9447000C9447000C9447000C94470034
:100030000C9447000C9447000C9447000C94470024
:100040000C9447000C9447000C9447000C94470014
:100050000C94470011241FBECFE5D4E0DEBFCDBF16
:1000600010E0A0E6B0E0E6EDF0E002C005900D92F1
:10007000A036B107D9F710E0A0E6B0E001C01D92AC
:10008000A036B107E1F70E9449000C9469000C9476
:1000900000008FEF84BB17BA88BB99E050E146E0BF
:1000A00035E02AE088BBB09902C095BBFBCFB1997F
:1000B00002C025BBF7CFB29902C035BBF3CFB399CD
:1000C00002C045BBEFCFB49902C055BBEBCF15BA08
:0600D000E9CFF894FFCF18
:00000001FF
