:100000000C942A000C9447000C9447000C94470071
:100010000C9447000C9447000C9447000C94470044
:100020000C9447000C9447000C9447000C94470034
:100030000C9447000C9447000C9447000C94470024
:100040000C9447000C9447000C9447000C94470014
:100050000C94470011241FBECFE5D4E0DEBFCDBF16
:1000600010E0A0E6B0E0E2E9F3E002C005900D92F6
:10007000AA37B107D9F710E0AAE7B0E001C01D9296
:10008000A838B107E1F70E9451010C94C7010C9404
:100090000000EFE3FFE13197F1F700C00000982F77
:1000A000907F92609BBBD9988295807F82608BBB4A
:1000B000D99808958FEF95EAAEE081509040A04026
:1000C000E1F700C0000083EF8ABB80E80E9449008E
:1000D00088E20E9449008EE00E94490081E00E946F
:1000E000490086E00E9449000895EFE3FFE131975F
:1000F000F1F700C00000982F907F93609BBBD998C8
:100100008295807F83608BBBD9980895CF93DF93CE
:10011000EC018881882331F021960E947500899135
:100120008823D9F7DF91CF910895CF93DF9300D043
:1001300000D00F92CDB7DEB7DE011196E0E6F0E019
:1001400025E001900D922150E1F7BE016F5F7F4FD6
:100150004AE050E00E948201CE0101960E94860092
:100160000F900F900F900F900F90DF91CF91089507
:10017000613021F480680E9449000895623019F4CA
:10018000806C0E9449000895CF93C82F8A3021F4D3
:1001900080E062E00E94B8008C2F0E947500CF9131
:1001A000089581E00E9449008FED9EE20197F1F7EA
:1001B00000C0000080E80E9449000895109283006A
:1001C000109282008091800090918100019690931E
:1001D0008100809380008D3391056CF01092810036
:1001E0001092800080917E0090917F000196909304
:1001F0007F0080937E0080917E0090917F00873009
:100200009105DCF010927F0010927E0080917800C2
:10021000909179000197909379008093780080E025
:1002200062E00E94B80085E690E00E94860080911E
:100230007800909179000E949500809178009091CB
:100240007900009769F580917C0090917D009C0178
:10025000220F331F820F931F880F991F90937B00EB
:1002600080937A000E94D10080E061E00E94B80093
:1002700080917A0090917B000E94950084E061E07B
:100280000E94B80084E790E00E9486008AE090E037
:10029000909379008093780010927D0010927C00FA
:1002A00008950E945A0011BA8FEF82BBC1E0D0E0DE
:1002B00001E010E0EE24FF2401C0E80180918200FB
:1002C000909183000196909383008093820026E0B2
:1002D0008034920711F40E94DE00809B0EC0C13072
:1002E000D10559F480917C0090917D000196909306
:1002F0007D0080937C00E701E1CF8099DFCF2097DC
:10030000E1F2DCCFFB019F01E8944230C4F04532BA
:10031000B4F44A3029F497FB1EF4909581959F4FD1
:10032000642F77270E94B301805D8A330CF0895DCA
:100330008193CB010097A1F716F45DE251931082EF
:10034000C9010C94A301DC01FC01672F7191772393
:10035000E1F7329704C07C916D9370836291AE1780
:10036000BF07C8F30895AA1BBB1B51E107C0AA1F12
:10037000BB1FA617B70710F0A61BB70B881F991F46
:100380005A95A9F780959095BC01CD010895F894F0
:02039000FFCF9D
:100392003030303030506C6561736520576169745C
:0A03A2002E2E2E0042504D000A00DE
:00000001FF
