:100000000C942A000C9447000C9447000C94470071
:100010000C9447000C9447000C9447000C94470044
:100020000C9447000C9447000C9447000C94470034
:100030000C9447000C9447000C9447000C94470024
:100040000C9447000C9447000C9447000C94470014
:100050000C94470011241FBECFE5D4E0DEBFCDBF16
:1000600010E0A0E6B0E0ECE7F3E002C005900D92EE
:10007000A437B107D9F710E0A4E7B0E001C01D92A2
:10008000A438B107E1F70E9407010C94BC010C945D
:100090000000EFE3FFE13197F1F700C00000982F77
:1000A000907F92609BBBD9988295807F82608BBB4A
:1000B000D99808958FEF95EAAEE081509040A04026
:1000C000E1F700C0000083EF8ABB80E80E9449008E
:1000D00088E20E9449008EE00E94490081E00E946F
:1000E000490086E00E9449000895EFE3FFE131975F
:1000F000F1F700C00000982F907F93609BBBD998C8
:100100008295807F83608BBBD9980895CF93DF93CE
:10011000EC018881882331F021960E947500899135
:100120008823D9F7DF91CF910895CF93DF9300D043
:1001300000D00F92CDB7DEB7DE011196E0E6F0E019
:1001400025E001900D922150E1F7BE016F5F7F4FD6
:100150004AE050E00E947701CE0101960E9486009D
:100160000F900F900F900F900F90DF91CF91089507
:10017000613021F480680E9449000895623019F4CA
:10018000806C0E9449000895CF93C82F8A3021F4D3
:1001900080E062E00E94B8008C2F0E947500CF9131
:1001A000089581E00E9449008FED9EE20197F1F7EA
:1001B00000C0000080E80E94490008951092790074
:1001C000109278008091760090917700019690933C
:1001D000770080937600873991056CF01092770054
:1001E0001092760080917400909175000196909322
:1001F0007500809374008091740090917500833035
:10020000910524F0109275001092740008950E94D8
:100210005A0011BA8FEF82BB0E94D100C1E0D0E03A
:1002200005E610E00F2EFCE6EF2EF0E0FF2EF02D9D
:100230008091780090917900019690937900809355
:10024000780026E08034920711F40E94DE00809B43
:1002500014C080917200909173008130910569F40F
:1002600080917C0090917D00019690937D00809319
:100270007C00109273001092720080990AC08091E5
:10028000720090917300009721F4D0937300C09393
:10029000720080917400909175008230910541F652
:1002A00080917C0090917D0090937F0080937E00F0
:1002B0000E94D10080E061E00E94B800C8010E9465
:1002C000860080917E0090917F000E949500C7017A
:1002D0000E94860010927D0010927C0010927500A2
:1002E00010927400D0937300C0937200A1CFFB01F1
:1002F0009F01E8944230C4F04532B4F44A3029F406
:1003000097FB1EF4909581959F4F642F77270E944D
:10031000A801805D8A330CF0895D8193CB01009741
:10032000A1F716F45DE251931082C9010C94980173
:10033000DC01FC01672F71917723E1F7329704C04C
:100340007C916D9370836291AE17BF07C8F30895D7
:10035000AA1BBB1B51E107C0AA1FBB1FA617B707EB
:1003600010F0A61BB70B881F991F5A95A9F7809507
:0C0370009095BC01CD010895F894FFCFDA
:10037C00303030303053706565643D006B6D2F68E4
:04038C0072000100FA
:00000001FF
