:100000000C942A000C9447000C9447000C94470071
:100010000C9447000C9447000C9447000C94470044
:100020000C9447000C9447000C9447000C94470034
:100030000C9447000C9447000C9447000C94470024
:100040000C9447000C9447000C9447000C94470014
:100050000C94470011241FBECFE5D4E0DEBFCDBF16
:1000600010E0A0E6B0E0E8EAF2E002C005900D92F0
:10007000A037B107D9F710E0A0E7B0E001C01D92AA
:10008000A037B107E1F70E94DE000C9452010C94F6
:100090000000EFE3FFE13197F1F700C00000982F77
:1000A000907F92609BBBD9988295807F82608BBB4A
:1000B000D99808958FEF95EAAEE081509040A04026
:1000C000E1F700C0000083EF8ABB80E80E9449008E
:1000D00088E20E9449008EE00E94490081E00E946F
:1000E000490086E00E9449000895EFE3FFE131975F
:1000F000F1F700C00000982F907F93609BBBD998C8
:100100008295807F83608BBBD9980895CF93DF93CE
:10011000EC018881882331F021960E947500899135
:100120008823D9F7DF91CF910895CF93DF9300D043
:1001300000D00F92CDB7DEB7DE011196E0E6F0E019
:1001400025E001900D922150E1F7BE016F5F7F4FD6
:100150004AE050E00E940D01CE0101960E94860007
:100160000F900F900F900F900F90DF91CF91089507
:10017000613021F480680E9449000895623019F4CA
:10018000806C0E9449000895CF93C82F8A3021F4D3
:1001900080E062E00E94B8008C2F0E947500CF9131
:1001A000089581E00E9449008FED9EE20197F1F7EA
:1001B00000C0000080E80E944900089511BA8FEF46
:1001C00084BB82BB0E945A0085E690E00E948600B4
:1001D00085E03AE099E026E0819B02C085BBFCCF38
:1001E000809B02C095BBF8CF829B02C025BBF4CF99
:1001F00035BB4FEF55EA6EE0415050406040E1F7AB
:1002000000C0000095BB4FEF57E863E141505040FC
:100210006040E1F700C00000DFCFFB019F01E894E0
:100220004230C4F04532B4F44A3029F497FB1EF44E
:10023000909581959F4F642F77270E943E01805DA6
:100240008A330CF0895D8193CB010097A1F716F4F6
:100250005DE251931082C9010C942E01DC01FC0176
:10026000672F71917723E1F7329704C07C916D93EA
:1002700070836291AE17BF07C8F30895AA1BBB1B1A
:1002800051E107C0AA1FBB1FA617B70710F0A61B96
:10029000B70B881F991F5A95A9F780959095BC01B7
:0802A000CD010895F894FFCF91
:1002A8003030303030454E5452495820382E3000C6
:00000001FF
