:100000000C942A000C9447000C9447000C94470071
:100010000C9447000C9447000C9447000C94470044
:100020000C9447000C9447000C9447000C94470034
:100030000C9447000C9447000C9447000C94470024
:100040000C9447000C9447000C9447000C94470014
:100050000C94470011241FBECFE5D4E0DEBFCDBF16
:1000600010E0A0E6B0E0ECE8F2E002C005900D92EE
:10007000A237B107D9F710E0A2E7B0E001C01D92A6
:10008000A237B107E1F70E94E6000C9444010C94FA
:10009000000092E49A95F1F700C0982F907F92604B
:1000A0009BBBD9988295807F82608BBBD99808953D
:1000B00082E48A95F1F700C083EF8ABB80E80E9452
:1000C000490088E20E9449008EE00E94490081E0D8
:1000D0000E94490086E00E944900089592E49A95A2
:1000E000F1F700C0982F907F93609BBBD9988295C1
:1000F000807F83608BBBD9980895CF93DF93EC0109
:100100008881882331F021960E946E00899188238E
:10011000D9F7DF91CF910895CF93DF9300D000D02E
:100120000F92CDB7DEB7DE011196E0E6F0E025E0F4
:1001300001900D922150E1F7BE016F5F7F4F4AE0C1
:1001400050E00E94FF00CE0101960E947D000F90BA
:100150000F900F900F900F90DF91CF910895613025
:1001600021F480680E9449000895623019F4806C7F
:100170000E9449000895CF93C82F8A3021F480E06F
:1001800062E00E94AF008C2F0E946E00CF91089514
:1001900081E00E94490082E48A95F1F700C080E87E
:1001A0000E944900089580E487B987E886B90895D8
:1001B00097B1907E97B997B1892B87B986B1806C3A
:1001C00086B9349BFECF84B195B108950E94580042
:1001D0000E94D30005E610E082E00E94D800EC0106
:1001E00080E061E00E94AF00CE010E948C0083E0BD
:1001F00061E00E94AF00C8010E947D00EDCFFB01CD
:100200009F01E8944230C4F04532B4F44A3029F4F6
:1002100097FB1EF4909581959F4F642F77270E943E
:100220003001805D8A330CF0895D8193CB010097AA
:10023000A1F716F45DE251931082C9010C942001DC
:10024000DC01FC01672F71917723E1F7329704C03D
:100250007C916D9370836291AE17BF07C8F30895C8
:10026000AA1BBB1B51E107C0AA1FBB1FA617B707DC
:1002700010F0A61BB70B881F991F5A95A9F78095F8
:0C0280009095BC01CD010895F894FFCFCB
:10028C00303030303025205245464C454354494F90
:02029C004E0012
:00000001FF
