:100000000C942A000C9447000C9447000C94470071
:100010000C9447000C9447000C9447000C94470044
:100020000C9447000C9447000C9447000C94470034
:100030000C9447000C9447000C9447000C94470024
:100040000C9447000C9447000C9447000C94470014
:100050000C94470011241FBECFE5D4E0DEBFCDBF16
:1000600010E0A0E6B0E0ECE3F1E002C005900D92F4
:10007000A036B107D9F710E0A0E6B0E001C01D92AC
:10008000A036B107E1F70E9449000C949C000C9443
:10009000000014BA8FEF87BB85BB82E091E098998E
:1000A00015C088BB2FEF39EF40E021503040404071
:1000B000E1F700C0000018BA2FEF3FE443EC2150F5
:1000C00030404040E1F700C00000E9CF999915C0E9
:1000D00088BB2FEF39EF40E0215030404040E1F73E
:1000E00000C0000018BA2FEF3FE443EC215030402D
:1000F0004040E1F700C00000D2CF9A9915C098BBEC
:100100002FEF33EF41E0215030404040E1F700C095
:10011000000018BA2FEF3FE443EC2150304040403C
:10012000E1F700C00000BBCF989BB9CF999BB7CF38
:0C0130009A9BB5CF18BAB3CFF894FFCF5C
:00000001FF
