:100000000C942A000C9447000C9447000C94470071
:100010000C9447000C9447000C9447000C94470044
:100020000C9447000C9447000C9447000C94470034
:100030000C9447000C9447000C9447000C94470024
:100040000C9447000C9447000C9447000C94470014
:100050000C94470011241FBECFE5D4E0DEBFCDBF16
:1000600010E0A0E6B0E0E8E0F1E002C005900D92FB
:10007000A036B107D9F710E0A0E6B0E001C01D92AC
:10008000A036B107E1F70E9449000C9482000C945D
:1000900000001ABA8FEF81BB81E038E024E092E0E3
:1000A000CB9908C0CA9906C0C99904C0C89B02C0B0
:1000B00082BBF6CFCB9908C0CA9906C0C99B04C0C1
:1000C000C89902C092BBECCFCB9908C0CA9B06C0AE
:1000D000C99904C0C89902C022BBE2CFCB9B08C01B
:1000E000CA9906C0C99904C0C89902C032BBD8CF0A
:1000F000CB99D6CFCA9BD4CFC999D2CFC89BD0CFEA
:0801000012BACECFF894FFCF34
:00000001FF
