:100000000C942A000C9447000C9447000C94470071
:100010000C9447000C9447000C9447000C94470044
:100020000C9447000C9447000C9447000C94F1008A
:100030000C9447000C9447000C9447000C94470024
:100040000C9447000C9447000C9447000C94470014
:100050000C94470011241FBECFE5D4E0DEBFCDBF16
:1000600010E0A0E6B0E0ECE0F4E002C005900D92F4
:10007000AA39B107D9F710E0AAE9B0E001C01D9292
:10008000AB3AB107E1F70E9420010C9404020C94F2
:10009000000096E890BD98E99AB910BC89B9089516
:1000A0005D9BFECF8CB90895CF93DF93EC018881DF
:1000B000882331F021960E94500089918823D9F736
:1000C000DF91CF9108955F9BFECF8CB1089592E4AC
:1000D0009A95F1F700C0982F907F92609BBBD998BA
:1000E0008295807F82608BBBD998089582E48A953F
:1000F000F1F700C083EF8ABB80E80E94670088E2C6
:100100000E9467008EE00E94670081E00E94670005
:1001100086E00E946700089592E49A95F1F700C086
:10012000982F907F93609BBBD9988295807F836046
:100130008BBBD9980895CF93DF93EC0188818823F6
:1001400031F021960E948C0089918823D9F7DF91A4
:10015000CF910895CF93DF9300D000D00F92CDB709
:10016000DEB7DE011196E0E6F0E025E001900D92A9
:100170002150E1F7BE016F5F7F4F4AE050E00E94DF
:10018000BF01CE0101960E949B000F900F900F902F
:100190000F900F90DF91CF910895613021F4806826
:1001A0000E9467000895623019F4806C0E94670015
:1001B0000895CF93C82F8A3021F480E062E00E9436
:1001C000CD008C2F0E948C00CF91089581E00E9479
:1001D000670082E48A95F1F700C080E80E9467001A
:1001E00008951F920F920FB60F9211242F938F93A1
:1001F0009F93EF93FF9380919A0090919B002CB175
:10020000FC01E256FF4F20838D30910529F41092B6
:100210009B0010929A0005C0019690939B008093DA
:100220009A00FF91EF919F918F912F910F900FBEA8
:100230000F901F9018955D9BFECF8AE18CB90895B1
:1002400087E60E94490078940E9476008FE087BB81
:1002500080EF88BB01E010E0CEE9D0E00F2EF5E69C
:10026000EF2EF0E0FF2EF02D0F2EF6E7CF2EF0E070
:10027000DF2EF02D0F2EF2E8AF2EF0E0BF2EF02D86
:100280000F2EFBE88F2EF0E09F2EF02D0F2EF6E9BB
:100290006F2EF0E07F2EF02D82E48A95F1F700C0FA
:1002A00081E061E00E94CD0010939D0000939C00CE
:1002B000F801EC0FFD1F80810E94D900E0919C00A5
:1002C000F0919D003196F0939D00E0939C00EE30FC
:1002D000F1057CF380E062E00E94CD00C7010E943E
:1002E0009B00C6010E94540082E48A95F1F700C089
:1002F000C5010E94540082E48A95F1F700C082E2B1
:100300000E94500082E48A95F1F700C0C4010E9467
:10031000540082E48A95F1F700C082E20E94500006
:1003200082E48A95F1F700C0C3010E94540082E480
:100330008A95F1F700C010929D0010929C00E0E0B9
:10034000F0E0EC0FFD1F80810E945000E0919C00C6
:10035000F0919D003196F0939D00E0939C00EE306B
:10036000F1057CF382E48A95F1F700C00E941B013D
:1003700082E48A95F1F700C00E941B018DCFFB013A
:100380009F01E8944230C4F04532B4F44A3029F475
:1003900097FB1EF4909581959F4F642F77270E94BD
:1003A000F001805D8A330CF0895D8193CB01009769
:1003B000A1F716F45DE251931082C9010C94E0019B
:1003C000DC01FC01672F71917723E1F7329704C0BC
:1003D0007C916D9370836291AE17BF07C8F3089547
:1003E000AA1BBB1B51E107C0AA1FBB1FA617B7075B
:1003F00010F0A61BB70B881F991F5A95A9F7809577
:0C0400009095BC01CD010895F894FFCF49
:10040C003030303030205359532020444941202083
:10041C0050554C53450041542B434D47463D310DEF
:10042C000A0041542B434D47533D00393039363384
:0A043C003630323838000D0A000097
:00000001FF
