:100000000C942A000C9447000C9447000C94470071
:100010000C9447000C9447000C9447000C94470044
:100020000C9447000C9447000C9447000C94FC007F
:100030000C9447000C9447000C9447000C94470024
:100040000C9447000C9447000C9447000C94470014
:100050000C94470011241FBECFE5D4E0DEBFCDBF16
:1000600010E0A0E6B0E0ECECF2E002C005900D92EA
:10007000A636B107D9F710E0A6E6B0E001C01D92A0
:10008000A736B107E1F70E940B010C9464010C94B0
:10009000000096E890BD98E99AB910BC89B9089516
:1000A0005D9BFECF8CB90895CF93DF93EC018881DF
:1000B000882331F021960E94500089918823D9F736
:1000C000DF91CF9108955F9BFECF8CB10895EFE350
:1000D000FFE13197F1F700C00000982F907F926008
:1000E0009BBBD9988295807F82608BBBD9980895FD
:1000F0008FEF95EAAEE081509040A040E1F700C05C
:10010000000083EF8ABB80E80E94670088E20E94BB
:1001100067008EE00E94670081E00E94670086E031
:100120000E9467000895EFE3FFE13197F1F700C007
:100130000000982F907F93609BBBD9988295807F19
:1001400083608BBBD9980895CF93DF93EC018881AE
:10015000882331F021960E94930089918823D9F752
:10016000DF91CF910895CF93DF9300D000D00F920D
:10017000CDB7DEB7DE011196E0E6F0E025E00190B4
:100180000D922150E1F7BE016F5F7F4F4AE050E0D2
:100190000E941F01CE0101960E94A4000F900F90B3
:1001A0000F900F900F90DF91CF910895613021F45F
:1001B00080680E9467000895623019F4806C0E9484
:1001C00067000895CF93C82F8A3021F480E062E061
:1001D0000E94D6008C2F0E949300CF91089581E059
:1001E0000E9467008FED9EE20197F1F700C00000CA
:1001F00080E80E94670008951F920F920FB60F9239
:1002000011248F938CB1809366008F910F900FBE55
:100210000F901F90189587E60E94490078940E94DD
:10022000780081E061E00E94D600809166000E9423
:10023000E200F7CF5D9BFECF8AE18CB90895FB0108
:100240009F01E8944230C4F04532B4F44A3029F4B6
:1002500097FB1EF4909581959F4F642F77270E94FE
:100260005001805D8A330CF0895D8193CB0100974A
:10027000A1F716F45DE251931082C9010C9440017C
:10028000DC01FC01672F71917723E1F7329704C0FD
:100290007C916D9370836291AE17BF07C8F3089588
:1002A000AA1BBB1B51E107C0AA1FBB1FA617B7079C
:1002B00010F0A61BB70B881F991F5A95A9F78095B8
:0C02C0009095BC01CD010895F894FFCF8B
:0602CC003030303030003C
:00000001FF
