:100000000C942A000C9447000C9447000C94470071
:100010000C9447000C9447000C9447000C94470044
:100020000C9447000C9447000C9447000C94470034
:100030000C9447000C9447000C9447000C94470024
:100040000C9447000C9447000C9447000C94470014
:100050000C94470011241FBECFE5D4E0DEBFCDBF16
:1000600010E0A0E6B0E0E0EAF3E002C005900D92F7
:10007000A037B107D9F710E0A0E7B0E001C01D92AA
:10008000A037B107E1F70E94F1000C94CE010C9467
:100090000000EFE3FFE13197F1F700C00000982F77
:1000A000907F92609BBBD9988295807F82608BBB4A
:1000B000D99808958FEF95EAAEE081509040A04026
:1000C000E1F700C0000083EF8ABB80E80E9449008E
:1000D00088E20E9449008EE00E94490081E00E946F
:1000E000490086E00E9449000895EFE3FFE131975F
:1000F000F1F700C00000982F907F93609BBBD998C8
:100100008295807F83608BBBD9980895CF93DF93CE
:10011000EC018881882331F021960E947500899135
:100120008823D9F7DF91CF910895CF93DF9300D043
:1001300000D00F92CDB7DEB7DE011196E0E6F0E019
:1001400025E001900D922150E1F7BE016F5F7F4FD6
:100150004AE050E00E948901CE0101960E9486008B
:100160000F900F900F900F900F90DF91CF91089507
:10017000613021F480680E9449000895623019F4CA
:10018000806C0E9449000895CF93C82F8A3021F4D3
:1001900080E062E00E94B8008C2F0E947500CF9131
:1001A000089581E00E9449008FED9EE20197F1F7EA
:1001B00000C0000080E80E944900089580E487B9EB
:1001C00087E886B9089597B1907E97B997B1892B42
:1001D00087B986B1806C86B9349BFECF84B195B166
:1001E00008950E94DE008FEF84BB0F2EF5E6EF2E00
:1001F000F0E0FF2EF02D0F2EFAE6CF2EF0E0DF2EEE
:10020000F02D0F2EF5E0BF2EF02D0F2EF6E08F2EE5
:10021000F02D0F2EF9E09F2EF02D0F2EFAE0AF2ECD
:10022000F02D0E945A0082E00E94E3008C0180E0E1
:1002300061E00E94B800C8010E949500C7010E94B9
:10024000860083E00E94E300EC0180E062E00E940F
:10025000B800CE010E949500C6010E94860081E090
:10026000C337D80794F0B5BA8FEF91EEA4E0815070
:100270009040A040E1F700C0000015BAAFE3BCE930
:100280001197F1F700C00000CCCFB1E0CC32DB0712
:1002900094F4A5BA8FEF91EEA4E081509040A04075
:1002A000E1F700C0000015BAAFE3BCE91197F1F720
:1002B00000C00000B6CFB1E00C321B0794F495BA31
:1002C0008FEF91EEA4E081509040A040E1F700C094
:1002D000000015BAAFE3BCE91197F1F700C00000C8
:1002E000A0CFB1E00F351B0794F085BA8FEF91EEE8
:1002F000A4E081509040A040E1F700C0000015BA92
:10030000AFE3BCE91197F1F700C000008ACF15BA3E
:1003100088CFFB019F01E8944230C4F04532B4F429
:100320004A3029F497FB1EF4909581959F4F642FD6
:1003300077270E94BA01805D8A330CF0895D819332
:10034000CB010097A1F716F45DE251931082C90129
:100350000C94AA01DC01FC01672F71917723E1F76E
:10036000329704C07C916D9370836291AE17BF0782
:10037000C8F30895AA1BBB1B51E107C0AA1FBB1FEE
:10038000A617B70710F0A61BB70B881F991F5A9521
:10039000A9F780959095BC01CD010895F894FFCF01
:1003A0003030303030202D3E5800202D3E59000096
:00000001FF
