:100000000C942A000C9447000C9447000C94470071
:100010000C9447000C9447000C9447000C94470044
:100020000C9447000C9447000C9447000C94470034
:100030000C9447000C9447000C9447000C94470024
:100040000C9447000C9447000C9447000C94470014
:100050000C94470011241FBECFE5D4E0DEBFCDBF16
:1000600010E0A0E6B0E0E0EFF3E002C005900D92F2
:10007000A23AB107D9F710E0A2EAB0E001C01D92A0
:10008000A23AB107E1F70E94F1000C94F6010C943A
:100090000000EFE3FFE13197F1F700C00000982F77
:1000A000907F92609BBBD9988295807F82608BBB4A
:1000B000D99808958FEF95EAAEE081509040A04026
:1000C000E1F700C0000083EF8ABB80E80E9449008E
:1000D00088E20E9449008EE00E94490081E00E946F
:1000E000490086E00E9449000895EFE3FFE131975F
:1000F000F1F700C00000982F907F93609BBBD998C8
:100100008295807F83608BBBD9980895CF93DF93CE
:10011000EC018881882331F021960E947500899135
:100120008823D9F7DF91CF910895CF93DF9300D043
:1001300000D00F92CDB7DEB7DE011196E0E6F0E019
:1001400025E001900D922150E1F7BE016F5F7F4FD6
:100150004AE050E00E94B101CE0101960E94860063
:100160000F900F900F900F900F90DF91CF91089507
:10017000613021F480680E9449000895623019F4CA
:10018000806C0E9449000895CF93C82F8A3021F4D3
:1001900080E062E00E94B8008C2F0E947500CF9131
:1001A000089581E00E9449008FED9EE20197F1F7EA
:1001B00000C0000080E80E944900089580E487B9EB
:1001C00087E886B9089597B1907E97B997B1892B42
:1001D00087B986B1806C86B9349BFECF84B195B166
:1001E000089517BA8FEF88BB0E945A000E94DE0064
:1001F000C5E6D0E002E710E00F2EF7E7EF2EF0E0C3
:10020000FF2EF02D0F2EFAE7CF2EF0E0DF2EF02D8F
:100210000F2EFFE7AF2EF0E0BF2EF02D0F2EF4E8EB
:100220008F2EF0E09F2EF02D0F2EF8E86F2EF0E0CD
:100230007F2EF02D0F2EFDE84F2EF0E05F2EF02DDB
:100240000F2EF7E92F2EF0E03F2EF02D0E94D10067
:1002500080E061E00E94B800CE010E9486008FEF2E
:1002600097EAA1E681509040A040E1F700C000006D
:1002700080E061E00E94B800C8010E9486008FEF14
:1002800091EEA4E081509040A040E1F700C0000052
:1002900080E061E00E94B800C7010E9486008FEFF5
:1002A00091EEA4E081509040A040E1F700C0000032
:1002B00080E061E00E94B800C6010E9486008FEFD6
:1002C00091EEA4E081509040A040E1F700C0000012
:1002D00080E061E00E94B800C5010E9486008FEFB7
:1002E00091EEA4E081509040A040E1F700C00000F2
:1002F00080E061E00E94B800C4010E9486008FEF98
:1003000091EEA4E081509040A040E1F700C00000D1
:1003100080E061E00E94B800C3010E9486008FEF78
:1003200091EEA4E081509040A040E1F700C00000B1
:1003300080E061E00E94B800C2010E94860080E077
:1003400062E00E94B800C1010E9486008AEA96EE2F
:10035000A6E9B1E081509040A040B040D9F700003C
:1003600075CFFB019F01E8944230C4F04532B4F4EC
:100370004A3029F497FB1EF4909581959F4F642F86
:1003800077270E94E201805D8A330CF0895D8193BA
:10039000CB010097A1F716F45DE251931082C901D9
:1003A0000C94D201DC01FC01672F71917723E1F7F6
:1003B000329704C07C916D9370836291AE17BF0732
:1003C000C8F30895AA1BBB1B51E107C0AA1FBB1F9E
:1003D000A617B70710F0A61BB70B881F991F5A95D1
:1003E000A9F780959095BC01CD010895F894FFCFB1
:1003F00030303030304D4541535552494E472043FF
:100400004F0031312E330031320031322E34003181
:10041000302E3500392E320031312E350032332E58
:1004200035362050504D004E4F20544852454154CF
:020430000000CA
:00000001FF
