:100000000C942A000C9447000C9447000C94470071
:100010000C9447000C9447000C9447000C94470044
:100020000C9447000C9447000C9447000C94470034
:100030000C9447000C9447000C9447000C94470024
:100040000C9447000C9447000C9447000C94470014
:100050000C94470011241FBECFE5D4E0DEBFCDBF16
:1000600010E0A0E6B0E0E0EFF0E002C005900D92F5
:10007000A036B107D9F710E0A0E6B0E001C01D92AC
:10008000A036B107E1F70E9449000C9476000C9469
:1000900000008FEF81BB1ABA11C012BA2FEF30EEF9
:1000A00040E0215030404040E1F700C0000082BBFA
:1000B000EFE3FFE13197F1F700C00000C899EDCF01
:1000C000C99BFCCF12BA2FE73DEE40E021503040F3
:1000D0004040E1F700C0000082BBEFE9FFE031974C
:1000E000F1F700C00000C999EDCFE8CFF894FFCF39
:00000001FF
