:100000000C942A000C9447000C9447000C94470071
:100010000C9447000C9447000C9447000C94470044
:100020000C9447000C9447000C9447000C94FC007F
:100030000C9447000C9447000C9447000C94470024
:100040000C9447000C9447000C9447000C94470014
:100050000C94470011241FBECFE5D4E0DEBFCDBF16
:1000600010E0A0E6B0E0E4E2F4E002C005900D92FA
:10007000A439B107D9F710E0A4E9B0E001C01D929E
:10008000A53AB107E1F70E942B010C9410020C94E1
:10009000000096E890BD98E99AB910BC89B9089516
:1000A0005D9BFECF8CB90895CF93DF93EC018881DF
:1000B000882331F021960E94500089918823D9F736
:1000C000DF91CF9108955F9BFECF8CB10895EFE350
:1000D000FFE13197F1F700C00000982F907F926008
:1000E0009BBBD9988295807F82608BBBD9980895FD
:1000F0008FEF95EAAEE081509040A040E1F700C05C
:10010000000083EF8ABB80E80E94670088E20E94BB
:1001100067008EE00E94670081E00E94670086E031
:100120000E9467000895EFE3FFE13197F1F700C007
:100130000000982F907F93609BBBD9988295807F19
:1001400083608BBBD9980895CF93DF93EC018881AE
:10015000882331F021960E94930089918823D9F752
:10016000DF91CF910895CF93DF9300D000D00F920D
:10017000CDB7DEB7DE011196E0E6F0E025E00190B4
:100180000D922150E1F7BE016F5F7F4F4AE050E0D2
:100190000E94CB01CE0101960E94A4000F900F9007
:1001A0000F900F900F90DF91CF910895613021F45F
:1001B00080680E9467000895623019F4806C0E9484
:1001C00067000895CF93C82F8A3021F480E062E061
:1001D0000E94D6008C2F0E949300CF91089581E059
:1001E0000E9467008FED9EE20197F1F700C00000CA
:1001F00080E80E94670008951F920F920FB60F9239
:1002000011242F938F939F93EF93FF9380919400EA
:10021000909195002CB1FC01E856FF4F20838D3062
:10022000910529F4109295001092940005C0019652
:100230009093950080939400FF91EF919F918F91FF
:100240002F910F900FBE0F901F9018955D9BFECFC2
:100250008AE18CB9089587E60E94490078940E944B
:1002600078008FE087BB80EF88BB05E610E00F2E9B
:10027000F1E7EF2EF0E0FF2EF02D0F2EFAE7CF2E54
:10028000F0E0DF2EF02D0F2EF5E8AF2EF0E0BF2EC0
:10029000F02D0F2EF8E88F2EF0E09F2EF02DC1E00C
:1002A000D0E0C8010E9454008FEF93EDA0E381508D
:1002B0009040A040E1F700C00000C7010E94540038
:1002C0008FEF93EDA0E381509040A040E1F700C094
:1002D000000082E20E9450008FEF93EDA0E3815076
:1002E0009040A040E1F700C00000C6010E94540009
:1002F0008FEF93EDA0E381509040A040E1F700C064
:10030000000082E20E9450008FEF93EDA0E3815045
:100310009040A040E1F700C00000C5010E945400D9
:100320008FEF93EDA0E381509040A040E1F700C033
:100330000000C4010E9454008FEF93EDA0E38150B0
:100340009040A040E1F700C000000E9426018FEF1E
:1003500093EDA0E381509040A040E1F700C0000081
:100360000E94260181E061E00E94D600D0939700B0
:10037000C0939600CE010E94B300809196009091A8
:100380009700019690939700809396008E30910588
:100390000CF087CFF0CFFB019F01E8944230C4F00E
:1003A0004532B4F44A3029F497FB1EF490958195B8
:1003B0009F4F642F77270E94FC01805D8A330CF0E9
:1003C000895D8193CB010097A1F716F45DE251930B
:1003D0001082C9010C94EC01DC01FC01672F7191C2
:1003E0007723E1F7329704C07C916D93708362911B
:1003F000AE17BF07C8F30895AA1BBB1B51E107C086
:10040000AA1FBB1FA617B70710F0A61BB70B881FA4
:10041000991F5A95A9F780959095BC01CD01089533
:04042000F894FFCF7E
:10042400303030303041542B434D47463D310D0A76
:100434000041542B434D47533D0039303936333650
:1004440030323838000D0A004D45444954524F4E5D
:0404540049435300C5
:00000001FF
