:100000000C942A000C9447000C9447000C94470071
:100010000C9447000C9447000C9447000C94470044
:100020000C9447000C9447000C9447000C94470034
:100030000C9447000C9447000C9447000C94470024
:100040000C9447000C9447000C9447000C94470014
:100050000C94470011241FBECFE5D4E0DEBFCDBF16
:1000600010E0A0E6B0E0EAEBF0E002C005900D92EF
:10007000A036B107D9F710E0A0E6B0E001C01D92AC
:10008000A036B107E1F70E9449000C945B000C9484
:1000900000008FEF87BB87E018BAEFE8F1E03197F7
:1000A000F1F700C0000088BBEFE8F1E03197F1F70D
:0A00B00000C00000F1CFF894FFCF6C
:00000001FF
