:100000000C942A000C9447000C9447000C94470071
:100010000C9447000C9447000C9447000C94470044
:100020000C9447000C9447000C9447000C94470034
:100030000C9447000C9447000C9447000C94470024
:100040000C9447000C9447000C9447000C94470014
:100050000C94470011241FBECFE5D4E0DEBFCDBF16
:1000600010E0A0E6B0E0EEEFF3E002C005900D92E4
:10007000A63AB107D9F710E0A6EAB0E001C01D9298
:10008000AA3AB107E1F70E9414010C94FD010C9407
:10009000000096E890BD98E99AB910BC89B9089516
:1000A0005D9BFECF8CB90895CF93DF93EC018881DF
:1000B000882331F021960E94500089918823D9F736
:1000C000DF91CF9108955F9BFECF8CB10895EFE350
:1000D000FFE13197F1F700C00000982F907F926008
:1000E0009BBBD9988295807F82608BBBD9980895FD
:1000F0008FEF95EAAEE081509040A040E1F700C05C
:10010000000083EF8ABB80E80E94670088E20E94BB
:1001100067008EE00E94670081E00E94670086E031
:100120000E9467000895EFE3FFE13197F1F700C007
:100130000000982F907F93609BBBD9988295807F19
:1001400083608BBBD9980895CF93DF93EC018881AE
:10015000882331F021960E94930089918823D9F752
:10016000DF91CF910895CF93DF9300D000D00F920D
:10017000CDB7DEB7DE011196E0E6F0E025E00190B4
:100180000D922150E1F7BE016F5F7F4F4AE050E0D2
:100190000E94B801CE0101960E94A4000F900F901A
:1001A0000F900F900F90DF91CF910895613021F45F
:1001B00080680E9467000895623019F4806C0E9484
:1001C00067000895CF93C82F8A3021F480E062E061
:1001D0000E94D6008C2F0E949300CF91089581E059
:1001E0000E9467008FED9EE20197F1F700C00000CA
:1001F00080E80E946700089580E487B987E886B99F
:10020000089597B1907E97B997B1892B87B986B138
:10021000806C86B9349BFECF84B195B108955D9B07
:10022000FECF8AE18CB908950E94FC0087E60E9407
:10023000490078940E94780011BA12BA05E610E0DD
:100240000F2EF2E7EF2EF0E0FF2EF02D0F2EFEE73F
:10025000CF2EF0E0DF2EF02D0F2EF7E8AF2EF0E0DE
:10026000BF2EF02D0F2EF2E98F2EF0E09F2EF02DF5
:100270000F2EF5E96F2EF0E07F2EF02D0E94780012
:1002800082E00E940101EC0180E061E00E94D60062
:10029000CE010E94B30080E062E00E94D600C80157
:1002A0000E94A40081E0C53FD80744F3C7010E9423
:1002B00054008FEF93EDA0E381509040A040E1F710
:1002C00000C00000C6010E9454008FEF93EDA0E330
:1002D00081509040A040E1F700C0000082E20E94FF
:1002E00050008FEF93EDA0E381509040A040E1F7E4
:1002F00000C00000C5010E9454008FEF93EDA0E301
:1003000081509040A040E1F700C0000082E20E94CE
:1003100050008FEF93EDA0E381509040A040E1F7B3
:1003200000C00000C4010E9454008FEF93EDA0E3D1
:1003300081509040A040E1F700C00000C3010E943E
:1003400054008FEF93EDA0E381509040A040E1F77F
:1003500000C000000E940F018FEF93EDA0E38150D9
:100360009040A040E1F700C000000E940F0186CF3E
:10037000FB019F01E8944230C4F04532B4F44A30A6
:1003800029F497FB1EF4909581959F4F642F772752
:100390000E94E901805D8A330CF0895D8193CB0175
:1003A0000097A1F716F45DE251931082C9010C94F5
:1003B000D901DC01FC01672F71917723E1F73297B6
:1003C00004C07C916D9370836291AE17BF07C8F330
:1003D0000895AA1BBB1B51E107C0AA1FBB1FA6178C
:1003E000B70710F0A61BB70B881F991F5A95A9F7DE
:0E03F00080959095BC01CD010895F894FFCF43
:1003FE003030303030204C50472052656164696E89
:10040E00670041542B434D47463D310D0A00415480
:10041E002B434D47533D003831343934333839335B
:10042E0030000D0A004C504720476173204C656127
:06043E006B616765000020
:00000001FF
