:100000000C942A000C9447000C9447000C94470071
:100010000C9447000C9447000C9447000C94470044
:100020000C9447000C9447000C9447000C94FC007F
:100030000C9447000C9447000C9447000C94470024
:100040000C9447000C9447000C9447000C94470014
:100050000C94470011241FBECFE5D4E0DEBFCDBF16
:1000600010E0A0E6B0E0E2E3F3E002C005900D92FC
:10007000A636B107D9F710E0A6E6B0E001C01D92A0
:10008000A736B107E1F70E941A010C9497010C946E
:100090000000EFE3FFE13197F1F700C00000982F77
:1000A000907F92609BBBD9988295807F82608BBB4A
:1000B000D99808958FEF95EAAEE081509040A04026
:1000C000E1F700C0000083EF8ABB80E80E9449008E
:1000D00088E20E9449008EE00E94490081E00E946F
:1000E000490086E00E9449000895EFE3FFE131975F
:1000F000F1F700C00000982F907F93609BBBD998C8
:100100008295807F83608BBBD9980895CF93DF93CE
:10011000EC018881882331F021960E947500899135
:100120008823D9F7DF91CF910895CF93DF9300D043
:1001300000D00F92CDB7DEB7DE011196E0E6F0E019
:1001400025E001900D922150E1F7BE016F5F7F4FD6
:100150004AE050E00E945201CE0101960E948600C2
:100160000F900F900F900F900F90DF91CF91089507
:10017000613021F480680E9449000895623019F4CA
:10018000806C0E9449000895CF93C82F8A3021F4D3
:1001900080E062E00E94B8008C2F0E947500CF9131
:1001A000089581E00E9449008FED9EE20197F1F7EA
:1001B00000C0000080E80E944900089596E890BDC4
:1001C00098E99AB910BC89B908955D9BFECF8CB9A6
:1001D0000895CF93DF93EC018881882331F0219635
:1001E0000E94E50089918823D9F7DF91CF91089586
:1001F0005F9BFECF8CB108951F920F920FB60F92A6
:1002000011248F938CB1809366008F910F900FBE55
:100210000F901F901895869B03C085E085BB0895BD
:10022000879B03C089E085BB0895859B02C086E05B
:1002300085BB089587E60E94DE0078940E945A00EC
:1002400011BA8FEF82BB17BA88BB84BB81E061E033
:100250000E94B800809166000E94C400B09B08C054
:1002600080916600843311F415BA02C00E940B011C
:10027000B19B08C080916600853311F415BA02C0A5
:100280000E940B01B29BE2CF80916600883311F48B
:1002900015BADCCF0E940B01D9CF5D9BFECF8AE15E
:1002A0008CB90895FB019F01E8944230C4F04532B7
:1002B000B4F44A3029F497FB1EF4909581959F4F32
:1002C000642F77270E948301805D8A330CF0895D5B
:1002D0008193CB010097A1F716F45DE25193108250
:1002E000C9010C947301DC01FC01672F7191772324
:1002F000E1F7329704C07C916D9370836291AE17E1
:10030000BF07C8F30895AA1BBB1B51E107C0AA1F72
:10031000BB1FA617B70710F0A61BB70B881F991FA6
:100320005A95A9F780959095BC01CD010895F89450
:02033000FFCFFD
:06033200303030303000D5
:00000001FF
