:100000000C942A000C9447000C9447000C94470071
:100010000C9447000C9447000C9447000C94470044
:100020000C9447000C9447000C9447000C94470034
:100030000C9447000C9447000C9447000C94470024
:100040000C9447000C9447000C9447000C94470014
:100050000C94470011241FBECFE5D4E0DEBFCDBF16
:1000600010E0A0E6B0E0ECECF3E002C005900D92E9
:10007000A036B107D9F710E0A0E6B0E001C01D92AC
:10008000A036B107E1F70E9449000C94E4010C94FA
:1000900000001ABA8FEF84BB8BBB12BA83E036E044
:1000A0002CE099E0E1E0F8EFA7E0C8995DC0809905
:1000B0005BC085BB4FEF51EE64E041505040604063
:1000C000E1F700C0000035BB4FEF51EE64E0415056
:1000D00050406040E1F700C0000025BB4FEF51EEFB
:1000E00064E0415050406040E1F700C0000095BB23
:1000F0004FEF51EE64E0415050406040E1F700C0E6
:10010000000085BB4FEF51EE64E04150504060402D
:10011000E1F700C0000035BB4FEF51EE64E0415005
:1001200050406040E1F700C0000025BB4FEF51EEAA
:1001300064E0415050406040E1F700C0000095BBD2
:100140004FEF51EE64E0415050406040E1F700C095
:100150000000E2BB4FEF53ED60E341505040604080
:10016000E1F700C00000A1CFC9995FC0809B5DC0CE
:1001700081995BC085BB4FEF51EE64E04150504028
:100180006040E1F700C0000035BB4FEF51EE64E086
:10019000415050406040E1F700C0000025BB4FEFE8
:1001A00051EE64E0415050406040E1F700C0000073
:1001B00095BB4FEF51EE64E0415050406040E1F795
:1001C00000C0000085BB4FEF51EE64E0415050404D
:1001D0006040E1F700C0000035BB4FEF51EE64E036
:1001E000415050406040E1F700C0000025BB4FEF98
:1001F00051EE64E0415050406040E1F700C0000023
:1002000095BB4FEF51EE64E0415050406040E1F744
:1002100000C0000082BB4FEF53ED60E341505040FF
:100220006040E1F700C0000040CFCA99C5C0809B84
:10023000C3C0819BC1C08299BFC095BB4FEF51EE37
:1002400064E0415050406040E1F700C0000025BB31
:100250004FEF51EE64E0415050406040E1F700C084
:10026000000035BB4FEF51EE64E04150504060401C
:10027000E1F700C0000085BB4FEF51EE64E0415054
:1002800050406040E1F700C00000F2BB4FEF53ED7B
:1002900060E3415050406040E1F700C0000095BB72
:1002A0004FEF51EE64E0415050406040E1F700C034
:1002B000000025BB4FEF51EE64E0415050406040DC
:1002C000E1F700C0000035BB4FEF51EE64E0415054
:1002D00050406040E1F700C0000085BB4FEF51EE99
:1002E00064E0415050406040E1F700C00000F2BBC4
:1002F0004FEF53ED60E3415050406040E1F700C0E4
:10030000000095BB4FEF51EE64E04150504060401B
:10031000E1F700C0000025BB4FEF51EE64E0415013
:1003200050406040E1F700C0000035BB4FEF51EE98
:1003300064E0415050406040E1F700C0000085BBE0
:100340004FEF51EE64E0415050406040E1F700C093
:10035000000095BB4FEF51EE64E0415050406040CB
:10036000E1F700C0000025BB4FEF51EE64E04150C3
:1003700050406040E1F700C0000035BB4FEF51EE48
:1003800064E0415050406040E1F700C0000085BB90
:100390004FEF51EE64E0415050406040E1F700C043
:1003A0000000A2BB4FEF53ED60E34150504060406E
:1003B000E1F700C0000079CEC89B77CEC99B75CE0F
:0C03C000CA9B73CE15BA71CEF894FFCF23
:00000001FF
