:100000000C942A000C9447000C9447000C94470071
:100010000C9447000C9447000C9447000C94470044
:100020000C9447000C9447000C9447000C94AE01CC
:100030000C9447000C9447000C9447000C94470024
:100040000C9447000C9447000C9447000C94470014
:100050000C94470011241FBECFE5D4E0DEBFCDBF16
:1000600011E0A0E6B0E0E6EEF6E002C005900D92E9
:10007000A831B107D9F711E0A8E1B1E001C01D92A4
:10008000A733B107E1F70E9406030C9471030C94A7
:100090000000EFE3FFE13197F1F700C00000982F77
:1000A000907F92609BBBD9988295807F82608BBB4A
:1000B000D99808958FEF95EAAEE081509040A04026
:1000C000E1F700C0000083EF8ABB80E80E9449008E
:1000D00088E20E9449008EE00E94490081E00E946F
:1000E000490086E00E9449000895EFE3FFE131975F
:1000F000F1F700C00000982F907F93609BBBD998C8
:100100008295807F83608BBBD9980895CF93DF93CE
:10011000EC018881882331F021960E947500899135
:100120008823D9F7DF91CF910895CF93DF9300D043
:1001300000D00F92CDB7DEB7DE011196E0E6F0E019
:1001400025E001900D922150E1F7BE016F5F7F4FD6
:100150004AE050E00E942C03CE0101960E948600E6
:100160000F900F900F900F900F90DF91CF91089507
:10017000613021F480680E9449000895623019F4CA
:10018000806C0E9449000895CF93C82F8A3021F4D3
:1001900080E062E00E94B8008C2F0E947500CF9131
:1001A000089581E00E9449008FED9EE20197F1F7EA
:1001B00000C0000080E80E944900089596E890BDC4
:1001C00098E99AB910BC89B908955D9BFECF8CB9A6
:1001D0000895CF93DF93EC018881882331F0219635
:1001E0000E94E50089918823D9F7DF91CF91089586
:1001F0005F9BFECF8CB108951092250110922401CF
:100200008091220190912301019690932301809384
:1002100022018D3391056CF010922301109222017E
:10022000809120019091210101969093210180936A
:100230002001809120019091210187309105DCF00F
:1002400010922101109220018091160190911701C6
:100250000197909317018093160180E062E00E945D
:10026000B80085E690E00E9486008091160190918A
:1002700017010E9495008091160190911701009737
:1002800069F580911E0190911F019C01220F331F7F
:10029000820F931F880F991F90931D0180931C015B
:1002A0000E94D10080E061E00E94B80080911C01B2
:1002B00090911D010E94950084E061E00E94B800C9
:1002C00084E790E00E9486008AE090E09093170116
:1002D0008093160110921F0110921E010895EF9253
:1002E000FF920F931F93CF93DF930E945A0011BA8E
:1002F0008FEF82BBC1E0D0E001E010E0EE24FF24EC
:1003000024C08091240190912501019690932501AC
:100310008093240126E08034920711F40E94FC00AF
:10032000879B0EC0C130D10559F480911E01909178
:100330001F01019690931F0180931E01E70105C0E4
:10034000879903C0209709F4E801B09BDACFDF91C9
:10035000CF911F910F91FF90EF9008951F920F92F0
:100360000FB60F9211242F938F939F93EF93FF93C8
:1003700080911801909119012CB1FC01EA5DFE4FAA
:1003800020838D30910529F41092190110921801E3
:1003900005C001969093190180931801FF91EF9188
:1003A0009F918F912F910F900FBE0F901F901895D6
:1003B0005D9BFECF8AE18CB908952F923F924F92B8
:1003C0005F926F927F928F929F92AF92BF92CF92E5
:1003D000DF92EF92FF920F931F93CF93DF9387E605
:1003E0000E94DE0078940E945A00B199FCC00F2E42
:1003F000F8E7EF2EF0E0FF2EF02D01E010E0C6E26E
:10040000D1E00F2EF8E8CF2EF0E0DF2EF02D0F2EEA
:10041000F9E9AF2EF0E0BF2EF02D0F2EF5EA8F2E6A
:10042000F0E09F2EF02D0F2EFEEA6F2EF0E07F2ED3
:10043000F02D0F2EF9EB4F2EF0E05F2EF02D0F2E4A
:10044000FCEB2F2EF0E03F2EF02D0E945A0081E0B1
:1004500061E00E94B800C7010E9486008AEA9AE91A
:10046000ABE5B6E081509040A040B040D9F7000025
:1004700081E061E00E94B80010931B0100931A0113
:10048000F801EC0FFD1F80810E94C400E0911A0169
:10049000F0911B013196F0931B01E0931A01EE30AD
:1004A000F1057CF380E062E00E94B800C6010E9482
:1004B0008600C5010E94E9008FEF93EDA0E3815013
:1004C0009040A040E1F700C00000C4010E94E90094
:1004D0008FEF93EDA0E381509040A040E1F700C082
:1004E000000082E20E94E5008FEF93EDA0E38150CF
:1004F0009040A040E1F700C00000C3010E94E90065
:100500008FEF93EDA0E381509040A040E1F700C051
:10051000000082E20E94E5008FEF93EDA0E381509E
:100520009040A040E1F700C00000C2010E94E90035
:100530008FEF93EDA0E381509040A040E1F700C021
:100540000000C1010E94E9008FEF93EDA0E381500C
:100550009040A040E1F700C0000010921B011092F3
:100560001A01E0E0F0E0EC0FFD1F80810E94E50041
:10057000E0911A01F0911B013196F0931B01E09379
:100580001A01EE30F1057CF38FEF93EDA0E381507B
:100590009040A040E1F700C0000087ED90E00E948D
:1005A000E9008FEF93EDA0E381509040A040E1F788
:1005B00000C000000E94D8018FEF93EDA0E38150AE
:1005C0009040A040E1F700C000000E94D8018AEAF4
:1005D00096EEA6E9B1E081509040A040B040D9F736
:1005E0000000B19B32CFDF91CF911F910F91FF900F
:1005F000EF90DF90CF90BF90AF909F908F907F90C3
:100600006F905F904F903F902F9008950E945A00F6
:1006100017BACFEF0CEF10E00F2EF8E0EF2EF1E05D
:10062000FF2EF02DC8BBB09903C00E946F01FACF16
:10063000B19903C00E94DD01F5CF80E061E00E9426
:10064000B800C8010E94860080E062E00E94B80005
:10065000C7010E948600E6CFFB019F01E89442306B
:10066000C4F04532B4F44A3029F497FB1EF4909557
:1006700081959F4F642F77270E945D03805D8A33A9
:100680000CF0895D8193CB010097A1F716F45DE230
:1006900051931082C9010C944D03DC01FC01672FBA
:1006A00071917723E1F7329704C07C916D93708349
:1006B0006291AE17BF07C8F30895AA1BBB1B51E197
:1006C00007C0AA1FBB1FA617B70710F0A61BB70BC2
:1006D000881F991F5A95A9F780959095BC01CD0167
:0606E0000895F894FFCF1D
:1006E6003030303030506C65617365205761697405
:1006F6002E2E2E0042504D0042505F4D656173759F
:1007060072696E672E2E2E002053595320204449BD
:1007160041202050554C53450041542B434D4746EC
:100726003D310D0A0041542B434D47533D003930AE
:100736003936333630323838000D0A0042502052EE
:10074600656164696E67206F6620612070617469F7
:10075600656E742069730020776869636820697321
:1007660020535953204449412050554C534520525B
:100776006573706563746976656C79004D454449A7
:1007860054524F4E49435300485228533129204270
:080796005028533229000A002B
:00000001FF
